:0F000000020032300004D28CC20020B20ADEFBB4
:09000F00DFF905327EFF7F0232A9
:0F002300309809C298D201E599F53332C299326B
:0E003200313475A881D288753200D200C20127
:0F004000758921759850758DFD85738C855E8A45
:10004F007DFF7EFF7F04308C2F308DFDC28CC28DE3
:0F005F0085738C855E8AD28CDDECC28C75A8907F
:0F006E0011D111F1D28E3174B441FBE532F59905
:0F007D00C299300105313412008980CC85323CA4
:0F008C003122747C315685333C312274AB3149BB
:10009B00E532B53310900202751605E493A3315681
:1000AB00D516F880205010900207751609E493A31B
:1000BB003156D516F8800E9001FA751608E493A305
:1000CB003156D516F822E5322400D4F53254F0C45B
:0F00DB004430F51EE532540F4430F51F851E20CA
:0F00EA0075212E851F2222791E751608751705A0
:0F00F9009001EDE493A33156D516F8E73156097F
:0F010800B920F974AB31499001F5E493A3315656
:10011700D517F8E7315609B923F922E53C54F0C45D
:0F01270044303156E53C540F4430315622743881
:100136003149740F3149740631497401314974806B
:10014600314922F590C2B5C2B6D2B73163C2B722E1
:0F015600F590D2B5C2B6D2B73163C2B722C0009E
:0F016500C001783279FFD9FED8FAD001D000223C
:0F0174007580FF75A000E580540FB40FF631635E
:0F018300E580540FB40F0280F53163E580540F0F
:0F019200B40F0280EA75A0FEE580540FB40F2170
:0F01A10075A0FDE580540FB40F1C75A0FBE58021
:0F01B000540FB40F1775A0F7E580540FB40F125A
:1001BF000201819001DD800D9001E180089001E541
:1001CF0080039001E9135003A380FAE493223132A4
:1001DF00334134353642373839432A302344434C80
:1001EF0049434B533A204350533A20594F552057C8
:1001FF004F4E214452415721594F55204C4F535484
:01020F0021CD
:00000001FF
